:10000000CDC10000F2C10000F0C10000EEC100004F
:10001000ECC10000EAC10000E8C10000E6C1000038
:10002000E4C10000E2C1000033C50000C1C500000A
:10003000DCC10000DAC10000D8C10000D6C1000058
:10004000D4C10000D2C10000D0C10000CEC1000068
:10005000CCC10000CAC10000C8C1000077C40000C4
:10006000C4C10000C2C10000C0C10000BEC1000088
:10007000BCC10000BAC10000B8C10000B6C1000098
:10008000B4C10000B2C10000B0C10000AEC10000A8
:10009000ACC10000AAC10000A8C10000A6C10000B8
:1000A000A4C10000A2C10000A0C1000001230223DE
:1000B0000423082380230129022904290829402632
:1000C000802640298029102320234023802F402F81
:1000D000202F102F022F012F10292029402C7DFDC9
:1000E0007DFB7DF77DEF7DDF7E7F7EBF7EDF7EEF58
:1000F0007EFD7EFE7DFE0001040506070D0C0B0A49
:1001000009080A0B0C0D0706050401000800010090
:100110000017031200020000A5017400220000C2B3
:10012000025500210000B70109002201008F0233AF
:1001300000210100D0010900220200190221002142
:100140000200E90109002203003A025500210300E0
:1001500009020900030000A101040103090461016F
:100160003E3E035400650065006E00730079002078
:10017000004B006500790062006F0061007200644E
:10018000002F004D006F007500730065002F004ABE
:10019000006F00790073007400690063006B000059
:1001A000000403090409027400040100C0320904B8
:1001B0000000010301010009211101000122550085
:1001C000070583030800010904010001030102007F
:1001D00009211101000122330007058403080001F1
:1001E000090402000203000000092111010001229C
:1001F00021000705810340000107050203200002DA
:10020000090403000103000000092111010001227B
:100210005500070585030C000206C9FF0904A15C0F
:100220007508150026FF0095400975810295200983
:1002300076910295040976B102C005010904A10175
:100240001500250175019520050919012920810254
:10025000150025073500463B017504950165140519
:10026000010939814205010901A100150026FF039A
:10027000750A950409300931093209358102C01522
:100280000026FF03750A9502093609368102C0056A
:10029000010902A10105091901290315002501958C
:1002A0000375018102950175058103050109300976
:1002B000311581257F7508950281060938950181E0
:1002C00006C005010906A10175019508050719E099
:1002D00029E7150025018102950875011500250102
:1002E000050C09E909EA09E209CD09B509B609B71A
:1002F00009B88102950575010508190129059102C2
:10030000950175039103950675081500257F05076E
:100310001900297F8100C01201000200000040C0C6
:1003200016820405010001000101C13601C0260149
:10033000C10601C10601C116002C5E7460616264D1
:10034000346667656E362D3738271E1F202122231D
:100350002425267333762E77785F444546474849EF
:100360004A4B4C4D4E4F5051525354555657585975
:100370005A5B5C5D2F3130636D3504050607080953
:100380000A0B0C0D0E0F1011121314151617181955
:100390001A1B1C1D6F7170752A00B20911241FBE33
:1003A000CFEFDAE0DEBFCDBF11E0A0E0B1E0EAEDD3
:1003B000F4E102C005900D92AA32B107D9F721E00D
:1003C000AAE2B1E001C01D92AC34B207E1F713E03C
:1003D000CCE9D3E004C02297FE010E944E0ACA393C
:1003E000D107C9F709D60C946B0A0ACE6150562F73
:1003F000577021E030E0052E01C0220F0A94EAF781
:100400004423C1F0683020F430914C01322B18C0E5
:10041000603120F430914D01322B1AC0683120F444
:1004200030914E01322B1CC0603220F530914F01CB
:10043000322B1EC02095683030F430914C013223AD
:1004400030934C0117C0603130F430914D013223AC
:1004500030934D010FC0683130F430914E0132239A
:1004600030934E0107C0603228F430914F0132239F
:1004700030934F01FC012081211101C0CDC60895A8
:1004800080910A01A3D180910801A0D181E08093DD
:100490003C010895AF92BF92CF92DF92EF92FF920C
:1004A0000F931F93CF93DF9380910E0150D10FEFE5
:1004B00013E09801281B390B309331012093300150
:1004C00080910C0144D19801281B390BC90130934C
:1004D0002F0120932E016091300170913101209104
:1004E0002C0130912D012617370724F470932D012C
:1004F00060932C0120910601309107016217730768
:1005000024F4709307016093060120912A01309131
:100510002B012817390724F490932B0180932A018B
:1005200020910401309105018217930724F49093E0
:10053000050180930401E0902C01F0902D0100272B
:10054000F7FC0095102F20910601309107014427F8
:1005500037FD4095542F882777FD8095982F1F925F
:100560001F92D3E0DF93CFEFCF93A12CB12C650185
:10057000FED47093310160933001E0902A01F09035
:100580002B010027F7FC0095102F209104013091DA
:100590000501442737FD4095542F60912E0170913D
:1005A0002F01882777FD8095982F1F921F92DF9348
:1005B000CF93DDD470932F0160932E018091300191
:1005C000909131012DB73EB7285F3F4F0FB6F89499
:1005D0003EBF0FBE2DBF811534E0930710F08FEFA3
:1005E00093E0282F2295207F309150013F70232BDC
:1005F0002093500134E0969587953A95E1F79091D4
:100600005101907C982B9093510180913C01811174
:1006100003C08CE391E000D680912E0190912F01D0
:10062000811524E0920710F08FEF93E0282F229598
:10063000220F220F207C309151013F73232B2093F6
:100640005101969587959695879580935201809153
:100650003C01811103C08CE391E0DED5E0910A01F9
:10066000F0910B01FF27DAD041E0E11101C040E039
:1006700061E08CE391E0BADEE0910801F0910901BC
:10068000FF27CCD041E0E11101C040E062E08CE303
:1006900091E0ACDE8CE391E0DF91CF911F910F915F
:1006A000FF90EF90DF90CF90BF90AF90B5C51DBA8F
:1006B000109268001CBC10BE1FBA10927A001092F3
:1006C0006E0010926F0010927100109272001092E2
:1006D000C900ECEBF0E0108214B817B81AB81DB8D6
:1006E00010BA108215B818B81BB81EB811BA089500
:1006F000F894E1E6F0E020E82083108283E084BDF6
:1007000085BDEEE6F0E080818160808381E08093AA
:10071000800092E0909381008093900090939100EC
:100720009093C00094E09093C1008093C2008093A6
:10073000C3001092C40086E880937A0020937B0067
:1007400010927E0010927D0046D1789408958731F2
:10075000D0F5E82FF0E0EA50FF4FE491E83070F474
:1007600080917E0021E030E00E2E01C0220F0A941D
:10077000EAF7822B80937E0080E80EC0E8508091DB
:100780007D0021E030E00E2E01C0220F0A94EAF72E
:10079000822B80937D0080EA80937B008091100102
:1007A0008E2B80937C0080917A00806480937A0005
:1007B00080917A0086FDFCCF8091780020917900AD
:1007C00090E0922B089580E090E00895893128F51B
:1007D000A5EFA80FAC3048F4EEEDF0E0AA0FEA0F59
:1007E000F11DA591B0E0959103C09FEFA0E0B0E0AE
:1007F000ECEAF0E0880FE80FF11D2591E491F0E0BC
:100800003FB7F8948181209582238183828182235E
:1008100082838C9189238C933FBF0895E93130F412
:10082000EE0FEE0FFF27E65EFB4F0994EE270895CB
:10083000E1E00895E3B1E170D9F70895E3B1E27022
:10084000B9F70895E3B1E47099F70895E3B1E8705A
:1008500079F70895E3B1E07859F70895E9B1E170C7
:1008600039F70895E9B1E27019F70895E9B1E47034
:10087000F9F60895E9B1E870D9F60895E6B1E074A3
:10088000B9F60895E6B1E07899F60895E9B1E07413
:1008900079F60895E9B1E07859F60895E3B1E07189
:1008A00039F60895E3B1E07219F60895E3B1E07402
:1008B00029F50895EFB1E07809F50895EFB1E074F6
:1008C000E9F40895EFB1E072C9F40895EFB1E07171
:1008D000A9F40895EFB1E27089F40895EFB1E170E1
:1008E00069F40895E9B1E07149F40895E9B1E0725D
:1008F00029F40895ECB1E07409F40895E1E0089555
:10090000F89484B7877F84BF809160008061809372
:1009100060001092600080E29EE40197F1F781E0B0
:100920008093E00080E28093D80080E69AEE019701
:10093000F1F7BDDE0C94003FFFCFF894B8DE80E6FF
:100940009AEE0197F1F70C940000FFCF8F938FB7C9
:100950008F93809132018D5F8D37D0F48093320177
:10096000809133018F5F80933301D8F080913401FF
:100970008F4F80933401A8F0809135018F4F809381
:10098000350178F0809136018F4F8093360109C090
:100990008D5780933201809133018E5F80933301B4
:1009A00028F7809137018C5F8093370158F0809150
:1009B00038018F4F8093380128F0809139018F4F93
:1009C000809339018F918FBF8F9118958091E800A6
:1009D00080FFFCCF08958091D80087FF02C085FF7B
:1009E00056C081E08093D70080EA8093D80082E1EE
:1009F00089BD09B400FEFDCF80E98093D800109234
:100A0000E000109268011092670110926601109246
:100A10005E0110925F0110926001109261011092CC
:100A2000620110926301109264011092650181E0ED
:100A300080935D019DE790935C0110925B011092A1
:100A40005A01109259018093580110924C01109252
:100A50004D0110924E0110924F018FE08093500192
:100A600090E29093510180E88093520110925301DB
:100A700022E02093540128E02093550190935601E1
:100A8000809357011092E1008CE08093E20008957A
:100A90001F920F920FB60F9211242F938F939F9353
:100AA000EF93FF938091E1001092E10083FF0FC06C
:100AB0001092E90091E09093EB001092EC0092E329
:100AC0009093ED0098E09093F0001092680182FFFF
:100AD00044C090916801992309F43FC09091660148
:100AE000992391F091509093660191110DC091E07E
:100AF0009093E9009091E80095FF03C01092F100F7
:100B0000F9CF9AE39093E80090915C01992329F141
:100B100090913B019F5F90933B019370F1F493E0C0
:100B20009093E9009091E80095FF17C090915B01C8
:100B30009F5F90935B0120915C0192130EC0109215
:100B40005B01EEE5F1E091919093F10091E0E636E2
:100B5000F907C9F79AE39093E80080FF0CC090E191
:100B60009093E2001092680191E09093670190EAFF
:100B70009093D80019BC90916701992379F084FF74
:100B80000DC082E189BD09B400FEFDCF80E98093EC
:100B9000D8008DE08093E20010926701FF91EF9101
:100BA0009F918F912F910F900FBE0F901F901895CE
:100BB0001F920F920FB60F921124EF92FF920F9394
:100BC0001F932F933F934F935F936F937F938F93D5
:100BD0009F93AF93BF93EF93FF93CF93DF931F92B6
:100BE000CDB7DEB71092E9008091E80083FFA4C181
:100BF0003091F1002091F1000091F1001091F1008D
:100C0000E090F100F090F1008091F1009091F100FE
:100C100042EF4093E800263009F03FC04CE0EDE0A1
:100C2000F1E0259135912017310711F0359615C067
:100C3000259135912E153F0511F033960EC0259163
:100C4000359144918F3F910519F010F08FEF90E0AE
:100C5000841708F4482F5EEF08C0415011F76CC1AB
:100C6000481B5093E8004423A9F08091E800982F96
:100C70009570D9F382FD63C1842F413408F080E47C
:100C8000982F992369F3F90125912093F1009F0191
:100C90009150F7CF803449F352C1253041F48EEFA3
:100CA0008093E80093DE00680093E30048C1293098
:100CB000F1F431113AC000936801109266018EEF91
:100CC0008093E80081E0E9E2F3E08093E900959108
:100CD0009093EB00992331F095919093EC009591CE
:100CE0009093ED008F5F873081F78EE141C028300F
:100CF00039F4303809F041C069DE8091680194C050
:100D0000211113C0398362DE3981323851F4E09207
:100D1000E9008091EB0085FB882780F91092E900BB
:100D200001C080E08093F10076C0422F4D7F4130BA
:100D300021F5323011F50115110509F081C04E2D54
:100D40004F775FEF540F573008F07AC08EEF8093E3
:100D5000E8004093E900233009F4EEC089E1809374
:100D6000EB0081E090E0042E01C0880F0A94EAF7BE
:100D70008093EA001092EA00E2C0E114F104D1F598
:100D8000313AD1F4213059F421DEEEE5F1E08191E0
:100D90008093F10021E0E636F207C9F76EC02230F9
:100DA00021F414DE80915C013FC0233009F0C4C0FF
:100DB0000DDE80915D0138C0313209F0B4C02930B8
:100DC00061F48091E80082FFFCCF8091F100809374
:100DD0005A018BEF8093E80050C02A3029F4109319
:100DE0005C0110925B0149C02B3009F0A5C0009353
:100DF0005D0143C041E0E416F10459F5313AB9F41C
:100E0000213061F4E3DD809159018093F10010926B
:100E1000F1001092F1001092F1002FC0233009F080
:100E20008BC0D4DD809158018093F10026C031320F
:100E300009F079C02B3009F07FC0009358011DC024
:100E4000E114F10409F46FC0F1E0EF16F10409F4C4
:100E50006AC0E3E0EE16F104A1F4313A09F063C090
:100E6000213009F069C0B2DDECE4F1E081918093BA
:100E7000F10021E0E835F207C9F78EEF8093E80032
:100E80005EC042E0E416F10409F04DC02130F1F4F7
:100E9000313A09F051C03EEF9091E800292F2570BA
:100EA000D9F392FD4CC0982F813408F090E4292F9B
:100EB000222321F01092F1002150FACF891B3093A8
:100EC000E8008111E9CF903439F339C0293059F560
:100ED000313291F50115134079F5049769F5809148
:100EE000E80082FFFCCF3091F1002091F100909159
:100EF000F1008091F1004BEF4093E8004EEF4093FA
:100F0000E800393A39F42534B9F4923CA9F48B3627
:100F100099F4F6DC3B3881F4253C71F49D3161F4A1
:100F2000803751F408C0293C39F4303429F48EEF6D
:100F30008093E8004BDD01DD81E28093EB000F90B0
:100F4000DF91CF91FF91EF91BF91AF919F918F91E1
:100F50007F916F915F914F913F912F911F910F91D1
:100F6000FF90EF900F900FBE0F901F9018954F922B
:100F70005F926F927F92AF92BF92CF92DF92EF9289
:100F8000FF920F931F93CF93DF93CDB7DEB7290165
:100F90003A01621B730B840B950B29893A894B89A3
:100FA0005C892A193B094C095D09298B3A8B4B8BCB
:100FB0005C8B9B01AC0169897A898B899C891FD2E2
:100FC000E418F50806091709A801970149D22A0D66
:100FD0003B1D4C1D5D1DCA01B901DF91CF911F91D1
:100FE0000F91FF90EF90DF90CF90BF90AF907F90E8
:100FF0006F905F904F9008957BDB42DA4BDAFECF23
:1010000080916801882371F08FB7F89492E09093F3
:10101000E9002BE69091E80095FF03C02093E800DB
:10102000F9CF8FBF10924B010895209168012223C0
:1010300071F12FB7F89431E03093E9003091E4007A
:10104000375E41E05091E80055FD0EC02FBF209162
:10105000E4002317E1F0209168012223C1F02FB7AB
:10106000F8944093E900EECF6093F1008091E8009E
:1010700085FD06C08AE38093E8001092660103C0F4
:1010800084E0809366012FBF81E090E0089521E025
:10109000FC01228380E090E008956032710528F41D
:1010A0006A30710551F488E208956038710528F4BA
:1010B000FB01E75EFC4F8491089580E008958091E4
:1010C0006801882309F441C08FB7F89493E09093A6
:1010D000E9009091E4009E5C23E03091E80035FD4A
:1010E0000EC08FBF80916801882379F18091E40060
:1010F000891759F18FB7F8942093E900EECF9091BA
:101100005E019093F10090915F019093F1009091B6
:1011100060019093F100909161019093F1009091A2
:1011200062019093F100909163019093F10090918E
:1011300064019093F100909165019093F1009AE31E
:101140009093E80010925B018FBF0895CF93DF93D7
:10115000EC0166FD02C080E001C082E080935E0188
:1011600010925F016F7360936001109261011092A1
:101170006201109263011092640110926501CE0128
:101180009EDF10925E0110926001CE01DF91CF913F
:1011900096CF6111DBCF0895CF93DF93EC0167FD0C
:1011A00003C01B8270E00BC0603CE0F4862F8F739D
:1011B0009B81913051F41B826C817D81682BCE0123
:1011C0006CDF682FCE01E5DF22C0923001F590E49C
:1011D000899FB00111248C819D81862B972B9D8343
:1011E0008C8309C0603E48F46F7180E4689FB00151
:1011F00011247D836C8381E009C0603F30F46295E7
:10120000607F1C826D8382E001C08FEF8B8381E061
:1012100090E0DF91CF91089580916801882309F4CF
:101220004FC08FB7F89495E09093E9009091E40057
:101230009E5C25E03091E80035FD0EC08FBF8091A7
:1012400068018823E9F18091E4008917C9F18FB71B
:10125000F8942093E900EECF90914C019093F10027
:1012600090914D019093F10090914E019093F10077
:1012700090914F019093F100909150019093F10063
:10128000909151019093F100909152019093F1004F
:10129000909153019093F100909154019093F1003B
:1012A000909155019093F100909156019093F10027
:1012B000909157019093F1009AE39093E8008FBFCB
:1012C00008959FB7F894809168018823C9F082E05F
:1012D0008093E9002BE68091E80085FD03C09FBF65
:1012E00080E008958091F100811103C02093E8000F
:1012F000F2CF2091E80025FD03C02BE62093E80003
:101300009FBF089520914B01211109C0DADF882386
:1013100019F080934B0103C080E090E0089581E0D4
:1013200090E0089520914B01222321F010924B016F
:10133000822F03C0C6DF882311F090E008958FEF5D
:101340009FEF089520914B01222311F0822F05C0B9
:10135000B8DF882321F080934B0190E008958FEF50
:101360009FEF0895E3E4F1E088E0DF011D928A95A4
:10137000E9F788EE93E0A0E0B0E080934601909317
:101380004701A0934801B09349018DE191E0918319
:101390008083EDE3F1E086E0DF011D928A95E9F7B5
:1013A00085E191E09183808310923C010895CF9272
:1013B000DF92EF92FF920F931F93CF93DF936C0115
:1013C0007A01EB01E60EF71E00E010E0CE15DF0516
:1013D00061F06991D601ED91FC910190F081E02DD1
:1013E000C6010995080F191FF1CFC801DF91CF91F0
:1013F0001F910F91FF90EF90DF90CF900895DB0148
:101400008F939F934FD0BF91AF91A29F800D911D5D
:10141000A39F900DB29F900D11240895A1E21A2E62
:10142000AA1BBB1BFD010DC0AA1FBB1FEE1FFF1F88
:10143000A217B307E407F50720F0A21BB30BE40BD8
:10144000F50B661F771F881F991F1A9469F760951F
:101450007095809590959B01AC01BD01CF010895D9
:10146000052E97FB16F400940FD057FD05D0D6DF5C
:1014700007FC02D046F408C0509540953095219560
:101480003F4F4F4F5F4F08959095809570956195B0
:101490007F4F8F4F9F4F0895EE0FFF1F0590F491E0
:1014A000E02D099409D0A59F900DB49F900DA49FA5
:1014B000800D911D11240895A29FB001B39FC0011A
:1014C000A39F700D811D1124911DB29F700D811D70
:0A14D0001124911D0895F894FFCF38
:1014DA0001000000FF03FF030A0009000E000D00CF
:1014EA004000000000CC08D709000000001508D70A
:0A14FA000982099209A20900080006
:00000001FF
